:100000000C942A000C9447000C9447000C94470071
:100010000C9447000C9447000C9447000C94470044
:100020000C9447000C9447000C9447000C94470034
:100030000C9447000C9447000C9447000C94470024
:100040000C9447000C9447000C9447000C94470014
:100050000C94470011241FBECFE5D4E0DEBFCDBF16
:1000600010E0A0E6B0E0EEE7FAE002C005900D92E5
:10007000A03BB107D9F720E0A0EBB0E001C01D9292
:10008000AE3BB207E1F70E9499010C943D050C9438
:10009000000011B880E280B9089594EA96BF06B6D0
:1000A00007FEFDCF91B1987F983071F483B984E851
:1000B00086BF06B607FEFDCF81B1887F883131F05B
:1000C000803231F083E0089580E0089581E0089562
:1000D00082E0089594EA96BF06B607FEFDCF91B17F
:1000E000987F903171F483B984E886BF06B607FE25
:1000F000FDCF81B1887F803431F0803231F083E0F0
:10010000089580E0089581E0089582E0089584E9EB
:1001100086BF06B604FCFDCF089583B984E886BF88
:1001200006B607FEFDCF81B1887F883221F080338B
:1001300021F082E0089580E0089581E0089584EC44
:1001400086BF06B607FEFDCF83B190E0089584E830
:1001500086BF06B607FEFDCF83B190E0089598B341
:10016000282F207F9F70922B98BBC098C19A32E0B5
:100170003A95F1F700C0C198E7ECF0E03197F1F75C
:1001800000C0000028B3F0E18F9FC0011124922F1E
:100190009F70892B88BBC19A32E03A95F1F700C075
:1001A000C1988FE99FE00197F1F700C00000089522
:1001B00098B3282F207F9F70922B98BBC09AC19A2A
:1001C00032E03A95F1F700C0C198E7ECF0E03197E2
:1001D000F1F700C0000028B3F0E18F9FC0011124A7
:1001E000922F9F70892B88BBC19A32E03A95F1F724
:1001F00000C0C1988FE99FE00197F1F700C00000AF
:1002000008958FEF87BB2FEF81EE94E0215080405F
:100210009040E1F700C0000083E30E94AF0082E35A
:100220000E94AF0088E20E94AF008CE00E94AF0005
:1002300081E00E94AF0082E80E94AF0008950F9312
:100240001F93CF93FC018081882359F08F01C0E078
:100250000E94D800CF5FF801EC0FF11D8081811161
:10026000F7CFCF911F910F910895CF93DF93EA01BC
:10027000811108C0603178F4862F8F7080680E94E9
:10028000AF0009C0813039F4603128F4862F8F70B7
:10029000806C0E94AF00CE010E941F01DF91CF91C0
:1002A0000895CF93C82F80ED0E944D008C2F0E949F
:1002B0008D0081ED0E946A000E949F009093B30020
:1002C0008093B2000E949F009093B5008093B40089
:1002D0000E94A7009093B7008093B6000E94870009
:1002E000CF910895CF93C82F80ED0E944D008C2FA1
:1002F0000E948D0081ED0E946A000E949F009093F1
:10030000BB008093BA000E949F009093BD00809331
:10031000BC000E949F009093B1008093B0000E94A7
:10032000A7009093B9008093B8000E948700CF91F6
:100330000895CF93DF93CDB7DEB7A2970FB6F894A9
:10034000DEBF0FBECDBF8EE0E0E6F0E0DE015596E9
:1003500001900D928A95E1F70E9449000E940101E7
:100360000F2EFEE6CF2EF0E0DF2EF02D8E010F5F78
:100370001F4F0F2EF6EBAF2EF0E0BF2EF02D0F2EFD
:10038000F1E42F2EFDE43F2E412CF02D0F2EF0E551
:100390006F2EFDE47F2E812CF02D0F2EFFE7EF2E28
:1003A000F0E0FF2EF02D80E00E9451018091B60018
:1003B0009091B70086FF36C02091B3002F93209113
:1003C000B2002F932091B5002F932091B4002F936A
:1003D0008F7199279F938F93DF92CF921F930F93E3
:1003E0000E946502F50180810FB6F894DEBF0FBE52
:1003F000CDBF85FF09C0F80101900020E9F73197D2
:1004000060827182828208C0F80101900020E9F7C1
:100410003197208231824282A80160E080E00E9410
:10042000350120C02091B3002F932091B2002F936B
:100430002091B5002F932091B4002F938F719927AD
:100440009F938F93DF92CF921F930F930E94650229
:10045000A80160E080E00E9435010FB6F894DEBF8D
:100460000FBECDBF83E00E947201E091BA00F0910F
:10047000BB003197EE0FFF1FE00FF11F85898F93AF
:1004800084898F938091B9008F938091B8008F9366
:100490008091B1008F938091B0008F938091BD00C7
:1004A0008F938091BC008F93FF92EF921F930F93D5
:1004B0000E946502A80160E081E00E9435010FB64C
:1004C000F894DEBF0FBECDBF6ECFAEE0B0E0EBE67E
:1004D000F2E00C9414050D891E8986E08C831A8342
:1004E00009838FEF9FE79E838D83AE01475E5F4F49
:1004F0006F89788DCE0101960E9488022F81388500
:10050000F801E20FF31F10822E96E4E00C94300500
:10051000ACE0B0E0EEE8F2E00C9406057C016B0183
:100520008A01FC0117821682838181FFBDC1CE0141
:1005300001964C01F7019381F60193FD859193FF9C
:1005400081916F01882309F4ABC1853239F493FDA1
:10055000859193FF81916F01853229F4B70190E075
:100560000E947004E7CF512C312C20E02032A0F4FF
:100570008B3269F030F4803259F0833269F42061B3
:100580002CC08D3239F0803339F4216026C02260CE
:10059000246023C0286021C027FD27C030ED380F1C
:1005A0003A3078F426FF06C0FAE05F9E300D112441
:1005B000532E13C08AE0389E300D1124332E206252
:1005C0000CC08E3221F426FD6BC1206406C08C362F
:1005D00011F4206802C0883641F4F60193FD85913C
:1005E00093FF81916F018111C1CF982F9F7D955409
:1005F000933028F40C5F1F4FFFE3F9830DC083365F
:1006000031F0833771F0833509F05BC022C0F80107
:10061000808189830E5F1F4F44244394512C5401E1
:1006200015C03801F2E06F0E711CF801A080B18096
:1006300026FF03C0652D70E002C06FEF7FEFC5019C
:100640002C870E9465042C0183012C852F77222E94
:1006500017C03801F2E06F0E711CF801A080B18064
:1006600026FF03C0652D70E002C06FEF7FEFC5016C
:100670002C870E945A042C012C852068222E83018D
:1006800023FC1BC0832D90E048165906B0F4B70137
:1006900080E290E00E9470043A94F4CFF50127FCC8
:1006A000859127FE81915F01B70190E00E9470045F
:1006B00031103A94F1E04F1A51084114510471F786
:1006C000E5C0843611F0893639F5F80127FF07C0F7
:1006D00060817181828193810C5F1F4F08C06081AE
:1006E0007181072E000C880B990B0E5F1F4F2F7620
:1006F000722E97FF09C090958095709561957F4FF8
:100700008F4F9F4F2068722E2AE030E0A4010E9494
:10071000A804A82EA81844C0853729F42F7EB22E2D
:100720002AE030E025C0F22FF97FBF2E8F36C1F0CE
:1007300018F4883579F0B4C0803719F0883721F083
:10074000AFC02F2F2061B22EB4FE0DC08B2D846060
:10075000B82E09C024FF0AC09F2F9660B92E06C08C
:1007600028E030E005C020E130E002C020E132E0C6
:10077000F801B7FE07C060817181828193810C5FAF
:100780001F4F06C06081718180E090E00E5F1F4FB7
:10079000A4010E94A804A82EA818FB2DFF777F2E85
:1007A00076FE0BC0372D3E7FA51450F474FE0AC0B0
:1007B00072FC08C0372D3E7E05C0BA2C372D03C011
:1007C000BA2C01C0B52C34FF0DC0FE01EA0DF11D9D
:1007D0008081803311F4397E09C032FF06C0B394A2
:1007E000B39404C0832F867809F0B39433FD13C00B
:1007F00030FF06C05A2CB31418F4530C5B18B32CFA
:10080000B31468F4B70180E290E03C870E94700462
:10081000B3943C85F5CFB31410F43B1801C0312CD0
:1008200034FF12C0B70180E390E03C870E9470045F
:100830003C8532FF17C031FD03C088E790E002C05D
:1008400088E590E0B7010CC0832F867859F031FF1E
:1008500002C08BE201C080E237FD8DE2B70190E07B
:100860000E947004A51438F4B70180E390E00E9460
:1008700070045A94F7CFAA94F401EA0DF11D808117
:10088000B70190E00E947004A110F5CF332009F465
:1008900051CEB70180E290E00E9470043A94F6CF06
:1008A000F7018681978102C08FEF9FEF2C96E2E1DE
:1008B0000C942205FC010590615070400110D8F79E
:1008C000809590958E0F9F1F0895FC016150704098
:1008D00001900110D8F7809590958E0F9F1F089575
:1008E0000F931F93CF93DF93FB01238121FD03C05F
:1008F0008FEF9FEF28C022FF16C0468157812481C9
:1009000035814217530744F4A081B1819D012F5FC7
:100910003F4F318320838C93268137812F5F3F4F58
:100920003783268310C0EB01092F182F0084F1852F
:10093000E02D0995892BE1F68E819F8101969F8399
:100940008E83812F902FDF91CF911F910F9108956A
:10095000FA01AA27283051F1203181F1E8946F93F0
:100960006E7F6E5F7F4F8F4F9F4FAF4FB1E03ED096
:10097000B4E03CD0670F781F891F9A1FA11D680F34
:10098000791F8A1F911DA11D6A0F711D811D911D67
:10099000A11D20D009F468943F912AE0269F1124DC
:1009A0003019305D3193DEF6CF010895462F477040
:1009B000405D4193B3E00FD0C9F7F6CF462F4F709B
:1009C000405D4A3318F0495D31FD4052419302D0F9
:1009D000A9F7EACFB4E0A69597958795779567959F
:1009E000BA95C9F700976105710508959B01AC019F
:1009F0000A2E06945795479537952795BA95C9F7C6
:100A0000620F731F841F951FA01D08952F923F92A0
:100A10004F925F926F927F928F929F92AF92BF920E
:100A2000CF92DF92EF92FF920F931F93CF93DF93BA
:100A3000CDB7DEB7CA1BDB0B0FB6F894DEBF0FBE17
:100A4000CDBF09942A88398848885F846E847D8464
:100A50008C849B84AA84B984C884DF80EE80FD8066
:100A60000C811B81AA81B981CE0FD11D0FB6F894DC
:0E0A7000DEBF0FBECDBFED010895F894FFCF9D
:100A7E00930097009B009F00A300A700AB002530BA
:100A8E0032783A253032783A2530327820200025D7
:100A9E003032782F253032782F253032782025339A
:100AAE0073200053756E004D6F6E005475650057C0
:100ABE0065640054687500467269005361740000E5
:00000001FF
