S01800005254435F4453313330375F57726974652E73726563F8
S11300000C942A000C9434000C9434000C943400A6
S11300100C9434000C9434000C9434000C9434008C
S11300200C9434000C9434000C9434000C9434007C
S11300300C9434000C9434000C9434000C9434006C
S11300400C9434000C9434000C9434000C9434005C
S11300500C94340011241FBECFE5D4E0DEBFCDBF25
S11300600E94AC000C94BB000C94000011B880E218
S113007080B9089594EA96BF06B607FEFDCF91B104
S1130080987F983071F483B984E886BF06B607FE7A
S1130090FDCF81B1887F883131F0803231F083E047
S11300A0089580E0089581E0089582E0089584E948
S11300B086BF06B604FCFDCF089583B984E886BFE5
S11300C006B607FEFDCF81B1887F883221F08033E8
S11300D021F082E0089580E0089581E008951F935F
S11300E0CF93DF93D62F142FC82FC22B80ED0E94FD
S11300F03A0080E00E945D00812F0E945D008D2FF8
S11301000E945D008C2F0E945D000E945700DF91C9
S1130110CF911F9108950F931F93CF93DF93082FCF
S1130120162FD42FC22F80ED0E943A0083E00E9444
S11301305D00802F0E945D00812F0E945D008D2F45
S11301400E945D008C2F0E945D000E945700DF9189
S1130150CF911F910F9108950E94360020E640E050
S113016069E581E10E946F0026E142E161E387E0F5
S10D01700E948B00FFCFF894FFCF2C
S9030000FC
