S01500004469676974616C20436C6F636B2E7372656345
S11300000C942A000C94B3010C9447000C94470000
S11300100C9447000C9447000C9447000C94470040
S11300200C9447000C9447000C9447000C94470030
S11300300C9447000C9447000C9447000C94470020
S11300400C9447000C9447000C9447000C94470010
S11300500C94470011241FBECFE5D8E0DEBFCDBF0E
S113006011E0A0E6B0E0E8EBFFE002C005900D92DD
S1130070A830B107D9F721E0A8E0B1E001C01D9292
S1130080A931B207E1F70E941E030C94DA070C941D
S1130090000011B880E280B9089594EA96BF06B6CC
S11300A007FEFDCF91B1987F983071F483B984E84D
S11300B086BF06B607FEFDCF81B1887F883131F057
S11300C0803231F482E0089580E0089581E008955B
S11300D083E0089594EA96BF06B607FEFDCF91B17A
S11300E0987F903171F483B984E886BF06B607FE21
S11300F0FDCF81B1887F803431F0803231F482E0E9
S1130100089580E0089581E0089583E0089584E9E6
S113011086BF06B604FCFDCF089583B984E886BF84
S113012006B607FEFDCF81B1887F883221F0803387
S113013021F481E0089580E0089582E0089584EC3C
S113014086BF06B607FEFDCF83B1089584E886BF57
S113015006B607FEFDCF83B10895282F2695269570
S113016030E0482F437050E0803158F4220F331FA1
S1130170220F331F205A3F4FF901E40FF51F8081EE
S1130180089580E008959BB39F70282F207F922BC1
S11301909BBB9BB39E7F9BBB9BB392609BBB32E09C
S11301A03A95F1F700C09BB39D7F9BBBEFE8F1E06C
S11301B03197F1F700C000002BB3F0E18F9FC0012D
S11301C01124922F9F70892B8BBB8BB382608BBBC6
S11301D032E03A95F1F700C08BB38D7F8BBB8FE98A
S11301E09FE00197F1F700C0000008959BB39F7052
S11301F0282F207F922B9BBB9BB391609BBB9BB30F
S113020092609BBB32E03A95F1F700C09BB39D7FAF
S11302109BBBEFE8F1E03197F1F700C000002BB38E
S1130220F0E18F9FC0011124922F9F70892B8BBB0B
S11302308BB382608BBB32E03A95F1F700C08BB38D
S11302408D7F8BBB8FE99FE00197F1F700C0000021
S113025008958FEF8ABB8FE39CE90197F1F700C003
S1130260000082E00E94C30088E20E94C3008CE088
S11302700E94C30086E00E94C30081E00E94C30084
S1130280089581E00E94C30082E00E94C3000895A3
S11302900F931F93CF93DF938C01C0E0D0E003C092
S11302A00E94F6002196F801EC0FFD1F8081811158
S11302B0F7CFDF91CF911F910F910895CF93DF93E3
S11302C0EA01811108C0603130F4862F8F70806894
S11302D00E94C30009C0813039F4603128F4862FAC
S11302E08F70806C0E94C300CE010E944801DF9190
S11302F0CF910895CF93DF9380E40E94C300C0E0C0
S1130300D0E009C0FE01EE0FFF1FE059FF4F8081CE
S11303100E94F6002196CF30D105A0F380E80E9418
S1130320C300DF91CF9108950E947A010E94410198
S11303302FEF89E698E1215080409040E1F700C01A
S1130340000080EC0E94C30080E00E94F600089543
S113035081B381BB82B3846082BB80E48BBF83E0C2
S113036085BF789408951F920F920FB60F921124AF
S11303702F933F934F935F936F937F938F939F93A9
S1130380AF93BF93EF93FF9386B38F700E94AD003A
S113039080930A0181E090E09093100180930F0113
S11303A0FF91EF91BF91AF919F918F917F916F9149
S11303B05F914F913F912F910F900FBE0F901F901F
S11303C018956AE070E00E946D0462957295707FE2
S11303D07627607F7627860F971F0895AF92BF9286
S11303E0CF92DF92EF92FF920F931F93CF93DF93FD
S11303F00E9441018EE790E00E9448012FEF89E6B8
S113040098E1215080409040E1F700C000000E9434
S113041041011092100110920F01E12CF12C00E027
S113042010E0FAC08DE380930A01C0E0D0E087C0F9
S11304300E94410187E890E00E944801EFEFF9E64D
S113044028E1E150F0402040E1F700C000000E94A4
S11304504101219600E010E0209751F380910A01B8
S11304608D3339F120910F01309110012130310584
S113047001F501151105E9F490E0EDB7FEB792839B
S113048081838DB79EB701960E9495045C014AE072
S11304906DB77EB76F5F7F4F0E94B3048DB79EB771
S11304A001960E9448011092100110920F0101E080
S11304B010E00130110509F042C080910F019091C4
S11304C010010197E1F5C501880F991FAA0CBB1C07
S11304D0AA0CBB1CAA0CBB1CA80EB91E4AE06DB723
S11304E07EB76F5F7F4FC5010E94B30480910A01FC
S11304F090E0EDB7FEB7928381838DB79EB70196E6
S11305000E94480180EC0E94C3008DB79EB70196FB
S11305100E9495046501C80ED91E4AE06DB77EB7E6
S11305206F5F7F4FC6010E94B30486E990E00E948A
S113053048011092100110920F0103E010E0809125
S11305400A018F3209F088CF0E9441014AE06DB759
S11305507EB76F5F7F4FC6010E94B30487EA90E0C5
S11305600E944801C6010E94E1014AE06DB77EB7CE
S11305706F5F7F4F0E94B30480EC0E94C3008DB76D
S11305809EB701960E944801FFEF29E688E1F150E9
S113059020408040E1F700C000000E944101E114C6
S11305A0F10481F487EB90E00E9448019FEFE9E6B3
S11305B0F8E19150E040F040E1F700C000000E94F3
S11305C0410127C021E0E216F10481F48CEB90E0B4
S11305D00E9448018FEF99E6E8E181509040E040A5
S11305E0E1F700C000000E94410113C0F2E0EF16E1
S11305F0F10479F481EC90E00E9448012FEF89E640
S113060098E1215080409040E1F700C000000E9432
S11306104101EFEFEE1AFE0AF3E0EF16F1040CF4D9
S113062001CF80E090E0DF91CF911F910F91FF9077
S1130630EF90DF90CF90BF90AF900895CF93DF936A
S1130640CDB7DEB764970FB6F894DEBF0FBECDBF4B
S11306500E9449000E9429010E94A8010E9494015D
S113066086EC90E00E9448018FE19EE40197F1F747
S113067000C0000080910A018D3361F580910F0163
S113068090911001019731F50E94EE018C0182EDE9
S113069090E00E9448019FEF29E638E19150204004
S11306A03040E1F700C000000E944101A8014C5F06
S11306B05F4FB8016E5F7F4F20E0802F0E942704B8
S11306C01092100110920F010E94940186EC90E0A8
S11306D00E94480180910A018B3209F580910F0133
S11306E0909110010197D9F40E9441018FED90E09F
S11306F00E9448018FEF99E628E181509040204004
S1130700E1F700C000000E94410110921001109214
S11307100F010E94940186EC90E00E9448018091B0
S11307200A01833409F580910F019091100101971A
S1130730D9F40E94410189EE90E00E9448013FEF04
S113074089E698E1315080409040E1F700C0000014
S11307500E9441011092100110920F010E94940115
S113076086EC90E00E94480180E00E944904809158
S113077011019091120186FF44C020910C012F9326
S113078020910B012F9320910E012F9320910D01A5
S11307902F938F7199279F938F9386EF90E09F9368
S11307A08F93CE0101969F938F930E94E0048091D2
S11307B011010E9443040FB6F894DEBF0FBECDBFF3
S11307C0882361F0FE01319601900020E9F731970A
S11307D080E59DE49183808312820BC0FE013196F3
S11307E001900020E9F7319781E49DE491838083AF
S11307F01282AE014F5F5F4F60E080E00E945E01B5
S113080039CF20910C012F9320910B012F9320912C
S11308100E012F9320910D012F938F7199279F9390
S11308208F9386EF90E09F938F938E010F5F1F4FFE
S11308301F930F930E94E004A80160E080E00E94EF
S11308405E010FB6F894DEBF0FBECDBF13CF1F936A
S1130850CF93DF93D62F142FC82FC22B80ED0E9485
S11308604D0080E00E948D00812F0E948D008D2F0D
S11308700E948D008C2F0E948D000E948700DF91C2
S1130880CF911F91089585FF02C081E0089580E013
S11308900895CF93C82F80ED0E944D008C2F0E94A5
S11308A08D0081ED0E946A000E949F0090E0909369
S11308B00C0180930B010E949F0090E090930E0125
S11308C080930D010E94A60090E090931201809302
S11308D011010E948700CF91089597FB072E16F40B
S11308E0009407D077FD09D00E94810407FC05D04D
S11308F03EF4909581959F4F0895709561957F4F33
S11309000895AA1BBB1B51E107C0AA1FBB1FA61752
S1130910B70710F0A61BB70B881F991F5A95A9F7A4
S113092080959095BC01CD010895FC0188279927F5
S1130930E89421912032E9F3293010F02E30C8F3E5
S11309402B3241F02D3239F4689404C00E94BE0465
S1130950820F911D219120532A30C0F31EF49095EB
S113096081959F4F0895BB274A3031F4992322F48F
S1130970BDE2909581959F4F0C94C7047AE0979FB0
S1130980902D879F802D910D11240895BB27FB0185
S11309905527AA27880F991FAA1FA41710F0A41B74
S11309A083955051B9F7A05DAA3308F0A95DA193CE
S11309B0009779F7B111B1931192CB010C94F90618
S11309C0AEE0B0E0E6EEF4E00C94B1070D891E89C8
S11309D086E08C831A8309838FEF9FE79E838D8340
S11309E0AE01475E5F4F6F89788DCE0101960E94FC
S11309F00205EF81F885E00FF11F10822E96E4E0E6
S1130A000C94CD07ABE0B0E0E8E0F5E00C94A3076C
S1130A106C017B018A01FC0117821682838181FFAC
S1130A20CCC1CE0101963C01F6019381F70193FDFF
S1130A30859193FF81917F01882309F4BAC185329E
S1130A4039F493FD859193FF81917F01853229F4D7
S1130A50B60190E00E940907E7CF912C212C312C9C
S1130A60FFE1F315D8F08B3279F038F4803279F065
S1130A708332A1F4232D20611DC08D3261F08033B7
S1130A8069F4232D216016C0832D8260382EE32D56
S1130A90E4603E2E2AC0F32DF8601DC037FC2DC043
S1130AA020ED280F2A3040F08E32B9F436FC81C193
S1130AB0232D2064322E19C036FE06C08AE0989E8B
S1130AC0200D1124922E11C0EAE02E9E200D112437
S1130AD0222EF32DF0623F2E08C08C3621F4832D94
S1130AE08068382E02C0883641F4F70193FD859161
S1130AF093FF81917F018111B3CF982F9F7D9554EE
S1130B00933028F40C5F1F4F9FE399830DC0833605
S1130B1031F0833771F0833509F059C021C0F801F1
S1130B20808189830E5F1F4F88248394912C530105
S1130B3013C02801F2E04F0E511CF801A080B180CF
S1130B4036FE03C0692D70E002C06FEF7FEFC50170
S1130B500E94EE064C018201F32DFF773F2E16C052
S1130B60280122E0420E511CF801A080B18036FE1B
S1130B7003C0692D70E002C06FEF7FEFC5010E94D2
S1130B80E3064C01F32DF0683F2E820133FC1BC0B9
S1130B90822D90E088169906B0F4B60180E290E0C8
S1130BA00E9409072A94F4CFF50137FC859137FE9A
S1130BB081915F01B60190E00E94090721102A94F7
S1130BC021E0821A91088114910471F7E8C08436F7
S1130BD011F0893641F5F80137FE07C06081718153
S1130BE0828193810C5F1F4F08C060817181072E41
S1130BF0000C880B990B0E5F1F4FF32DFF763F2ED1
S1130C0097FF09C090958095709561957F4F8F4FA0
S1130C109F4FF0683F2E2AE030E0A3010E94450771
S1130C20882E861845C0853731F4232D2F7EB22EA9
S1130C302AE030E025C0932D997FB92E8F36C1F07C
S1130C4018F4883579F0B5C0803719F0883721F069
S1130C50B0C0E92FE061BE2EB4FE0DC0FB2DF460E0
S1130C60BF2E09C034FE0AC0292F2660B22E06C04A
S1130C7028E030E005C020E130E002C020E132E0AD
S1130C80F801B7FE07C060817181828193810C5F96
S1130C901F4F06C06081718180E090E00E5F1F4F9E
S1130CA0A3010E944507882E8618FB2DFF773F2E4F
S1130CB036FE0DC0232D2E7FA22E891458F434FE47
S1130CC00BC032FC09C0832D8E7EA82E05C0B82C23
S1130CD0A32C03C0B82C01C0B92CA4FE0FC0FE0184
S1130CE0E80DF11D8081803321F49A2D997EA92E7F
S1130CF009C0A2FE06C0B394B39404C08A2D8678BA
S1130D0009F0B394A3FC11C0A0FE06C0B21488F489
S1130D10280C922C9B180EC0B21460F4B60180E229
S1130D2090E00E940907B394F7CFB21418F42B187B
S1130D3002C0982C212CA4FE10C0B60180E390E0E0
S1130D400E940907A2FE17C0A1FC03C088E790E037
S1130D5002C088E590E0B6010CC08A2D867859F06F
S1130D60A1FE02C08BE201C080E2A7FC8DE2B601C5
S1130D7090E00E940907891438F4B60180E390E0FA
S1130D800E9409079A94F7CF8A94F301E80DF11DA4
S1130D908081B60190E00E9409078110F5CF2220DE
S1130DA009F442CEB60180E290E00E9409072A9439
S1130DB0F6CFF6018681978102C08FEF9FEF2B96C5
S1130DC0E2E10C94BF07FC010590615070400110F2
S1130DD0D8F7809590958E0F9F1F0895FC01615060
S1130DE0704001900110D8F7809590958E0F9F1F49
S1130DF00895DC01FC01672F71917723E1F73297A5
S1130E0004C07C916D9370836291AE17BF07C8F3E1
S1130E1008950F931F93CF93DF93FB01238121FD4B
S1130E2003C08FEF9FEF2CC022FF16C0468157816D
S1130E30248135814217530744F4A081B1819D0177
S1130E402F5F3F4F318320838C93268137812F5F1F
S1130E503F4F3783268314C08B01EC01FB010084D0
S1130E60F185E02D0995892BE1F6D80116968D912F
S1130E709C911797019617969C938E931697CE0183
S1130E80DF91CF911F910F910895FA01AA2728307D
S1130E9051F1203181F1E8946F936E7F6E5F7F4F43
S1130EA08F4F9F4FAF4FB1E03ED0B4E03CD0670FBF
S1130EB0781F891F9A1FA11D680F791F8A1F911D12
S1130EC0A11D6A0F711D811D911DA11D20D009F462
S1130ED068943F912AE0269F11243019305D3193A4
S1130EE0DEF6CF010895462F4770405D4193B3E08D
S1130EF00FD0C9F7F6CF462F4F70405D4A3318F034
S1130F00495D31FD4052419302D0A9F7EACFB4E0E4
S1130F10A6959795879577956795BA95C9F700979C
S1130F206105710508959B01AC010A2E069457953D
S1130F30479537952795BA95C9F7620F731F841F94
S1130F40951FA01D08952F923F924F925F926F922A
S1130F507F928F929F92AF92BF92CF92DF92EF9245
S1130F60FF920F931F93CF93DF93CDB7DEB7CA1BC6
S1130F70DB0B0FB6F894DEBF0FBECDBF09942A88F1
S1130F80398848885F846E847D848C849B84AA8499
S1130F90B984C884DF80EE80FD800C811B81AA8126
S1130FA0B981CE0FD11D0FB6F894DEBF0FBECDBFF1
S10B0FB0ED010895F894FFCF50
S1130FB83738392F3435362A3132332D43303D2BE7
S1130FC800000E001500170011000E000000534524
S1130FD8542054494D4500496E207768696C652052
S1130FE86C6F6F702E007072657373202F20746F8E
S1130FF820656E7465720076616C756520746F2067
S113100862652073657400743D3D3000743D3D3164
S113101800743D3D32002020204E4F542053455447
S11310282E006E696B7570656E6465656565005341
S1131038455420414C41524D00414C41524D2041B0
S1131048435449564500253032783A253032783AA7
S10B105825303278202000004D
S9030000FC
